:10080000E4F508F509A2A0E433FF7801088001238C
:10081000D8FD1208540509E50970020508C39407BC
:10082000E5086480948040DDE4F508F509C3E50936
:100830009407E5086480948050C6A2A0E433FF7852
:100840000108800103D8FD1208540509E50970DD8F
:04085000050880D93E
:0808540024FF92A07F507EC337
:10085C00E4FDFCC3ED9FEC9E5014E4FB0BBBC8FC09
:0E086C000BEBC394C840F30DBD00010C80E5FA
:01087A00225B
:0300000002087B78
:0C087B00787FE4F6D8FD758109020800C2
:00000001FF
