:05015E0012000380FB0C
:10014000EFD39400400B7E267D82DDFEDEFA1F8019
:01015000EFBF
:01015100228B
:1000030075907F85900C530C0FE50C640F60477F50
:10001300057E0012014085900C530C0FE50C640F14
:10002300603485900CE50C2485601024FE60111467
:1000330060132407701212010A800D1200978008C2
:100043001200D3800312005AE50C640F60088590F8
:070053000C530C0F80F22298
:10010A00750A00750B01E4F508F509E50BF4F5A08D
:10011A00E50B25E0F50BE50A33F50A7F327E00127E
:10012A0001400509E50970020508C39408E5086459
:05013A0080948040D616
:01013F00229D
:10009700750A00750B01E4F508F509E50BF4F5A001
:1000A700E50BAE0A7802C333CE33CED8F9F50B8E03
:1000B7000A7F327E001201400509E5097002050832
:0B00C700C39404E5086480948040D0DE
:0100D200220B
:1000D300750A00750B80E4F508F509E50BF4F5A046
:1000E300E50AA2E713F50AE50B13F50B7F327E0051
:1000F3001201400509E50970020508C39408E508E3
:060103006480948040D5E9
:0101090022D3
:10005A00750A00750B80E4F508F509E50BF4F5A0BF
:10006A00E50BAE0A7802CEA2E713CE13D8F8F50B49
:10007A008E0A7F327E001201400509E509700205E9
:0C008A0008C39404E5086480948040CF13
:010096002247
:03000000020152A8
:0C015200787FE4F6D8FD75810C02015E98
:00000001FF
