:030000000200DE1D
:0C00DE00787FE4F6D8FD75812B02012527
:1001CA0010083F065B4F666D7D077F6F777C395E4F
:0E01DA0079710A18BF86DBCFE6EDFD87FFEFD7
:10000300EB75F00A84FEEB75F00A8485F027ED7535
:10001300F00A84F528ED75F00A8485F029EF75F070
:100023000A84F52AEF75F00A8485F02BD2A6AF0671
:1000330074082FF8E6F580C2A67580FFD2A77580F5
:10004300FEC2A77F057E001201F8D2A674182527E9
:10005300F8E6F580C2A67580FFD2A77580FDC2A71A
:100063007F057E001201F8D2A674082528F8E6F56C
:1000730080C2A67580FFD2A77580FBC2A77F057ECD
:10008300001201F8D2A674182529F8E6F580C2A655
:100093007580FFD2A77580F7C2A77F057E00120186
:1000A300F8D2A67408252AF8E6F580C2A67580FF63
:1000B300D2A77580EFC2A77F057E001201F8D2A6F2
:1000C3007408252BF8E6F580C2A67580FFD2A775C4
:0B00D30080DFC2A77F057E000201F85D
:0F01E8000126000124000125000122000123004F
:10016A0020B4107F0A7E001201F820B4037526011C
:10017A0030B4FD20B5107F0A7E001201F820B503C5
:10018A00E4F52630B5FDE526640170257F64FE128C
:10019A0001F80523E523B43C0FE4F5230522E52203
:1001AA00B43C05E4F5220525AB25AD22AF231200A8
:1001BA0003E52670ABAB25AD22AF2312000380A066
:0D01F800EFD3940040077E6EDEFE1F80F303
:0102050022D6
:1000EA0002016AE493A3F8E493A34003F68001F2C1
:1000FA0008DFF48029E493A3F85407240CC8C33317
:10010A00C4540F4420C8834004F456800146F6DFE5
:10011A00E4800B01020408102040809001CAE47EAA
:10012A00019360BCA3FF543F30E509541FFEE493DA
:10013A00A360010ECF54C025E060A840B8E493A3A1
:10014A00FAE493A3F8E493A3C8C582C8CAC583CACC
:10015A00F0A3C8C582C8CAC583CADFE9DEE780BE84
:0101F7000007
:00000001FF
